{
  "contractName": "Authenticity",
  "abi": [
    {
      "anonymous": false,
      "inputs": [
        {
          "indexed": false,
          "internalType": "address",
          "name": "author",
          "type": "address"
        },
        {
          "indexed": false,
          "internalType": "string",
          "name": "fileHash",
          "type": "string"
        },
        {
          "indexed": false,
          "internalType": "uint256",
          "name": "timestamp",
          "type": "uint256"
        },
        {
          "indexed": false,
          "internalType": "uint256",
          "name": "fileSize",
          "type": "uint256"
        },
        {
          "indexed": false,
          "internalType": "string",
          "name": "fileExtension",
          "type": "string"
        }
      ],
      "name": "FileCertified",
      "type": "event"
    },
    {
      "inputs": [
        {
          "internalType": "uint256",
          "name": "fileSize",
          "type": "uint256"
        },
        {
          "internalType": "string",
          "name": "fileHash",
          "type": "string"
        },
        {
          "internalType": "string",
          "name": "fileExtension",
          "type": "string"
        }
      ],
      "name": "certifyFile",
      "outputs": [],
      "stateMutability": "payable",
      "type": "function"
    },
    {
      "inputs": [
        {
          "internalType": "string",
          "name": "fileHash",
          "type": "string"
        }
      ],
      "name": "verifyFile",
      "outputs": [
        {
          "internalType": "address",
          "name": "",
          "type": "address"
        },
        {
          "internalType": "string",
          "name": "",
          "type": "string"
        },
        {
          "internalType": "uint256",
          "name": "",
          "type": "uint256"
        },
        {
          "internalType": "uint256",
          "name": "",
          "type": "uint256"
        },
        {
          "internalType": "string",
          "name": "",
          "type": "string"
        }
      ],
      "stateMutability": "view",
      "type": "function"
    }
  ],
  "bytecode": "0x608060405234801561001057600080fd5b50610ab1806100206000396000f3fe6080604052600436106100295760003560e01c806390d991e61461002e578063b02710231461004a575b600080fd5b61004860048036038101906100439190610546565b61008b565b005b34801561005657600080fd5b50610071600480360381019061006c91906105d1565b6101ba565b6040516100829594939291906106e9565b60405180910390f35b60006040518060a001604052803373ffffffffffffffffffffffffffffffffffffffff168152602001848152602001428152602001858152602001838152509050806000846040516100dd9190610786565b908152602001604051809103902060008201518160000160006101000a81548173ffffffffffffffffffffffffffffffffffffffff021916908373ffffffffffffffffffffffffffffffffffffffff160217905550602082015181600101908161014791906109a9565b506040820151816002015560608201518160030155608082015181600401908161017191906109a9565b509050507f7233f1f5a296ceee040647096ea8b83745c99e3a2e329004608ae07ac3b9ea2c33844287866040516101ac9594939291906106e9565b60405180910390a150505050565b6000606060008060606000866040516101d39190610786565b908152602001604051809103902060000160009054906101000a900473ffffffffffffffffffffffffffffffffffffffff166000876040516102159190610786565b90815260200160405180910390206001016000886040516102369190610786565b9081526020016040518091039020600201546000896040516102589190610786565b90815260200160405180910390206003015460008a60405161027a9190610786565b9081526020016040518091039020600401838054610297906107cc565b80601f01602080910402602001604051908101604052809291908181526020018280546102c3906107cc565b80156103105780601f106102e557610100808354040283529160200191610310565b820191906000526020600020905b8154815290600101906020018083116102f357829003601f168201915b50505050509350808054610323906107cc565b80601f016020809104026020016040519081016040528092919081815260200182805461034f906107cc565b801561039c5780601f106103715761010080835404028352916020019161039c565b820191906000526020600020905b81548152906001019060200180831161037f57829003601f168201915b505050505090509450945094509450945091939590929450565b6000604051905090565b600080fd5b600080fd5b6000819050919050565b6103dd816103ca565b81146103e857600080fd5b50565b6000813590506103fa816103d4565b92915050565b600080fd5b600080fd5b6000601f19601f8301169050919050565b7f4e487b7100000000000000000000000000000000000000000000000000000000600052604160045260246000fd5b6104538261040a565b810181811067ffffffffffffffff821117156104725761047161041b565b5b80604052505050565b60006104856103b6565b9050610491828261044a565b919050565b600067ffffffffffffffff8211156104b1576104b061041b565b5b6104ba8261040a565b9050602081019050919050565b82818337600083830152505050565b60006104e96104e484610496565b61047b565b90508281526020810184848401111561050557610504610405565b5b6105108482856104c7565b509392505050565b600082601f83011261052d5761052c610400565b5b813561053d8482602086016104d6565b91505092915050565b60008060006060848603121561055f5761055e6103c0565b5b600061056d868287016103eb565b935050602084013567ffffffffffffffff81111561058e5761058d6103c5565b5b61059a86828701610518565b925050604084013567ffffffffffffffff8111156105bb576105ba6103c5565b5b6105c786828701610518565b9150509250925092565b6000602082840312156105e7576105e66103c0565b5b600082013567ffffffffffffffff811115610605576106046103c5565b5b61061184828501610518565b91505092915050565b600073ffffffffffffffffffffffffffffffffffffffff82169050919050565b60006106458261061a565b9050919050565b6106558161063a565b82525050565b600081519050919050565b600082825260208201905092915050565b60005b8381101561069557808201518184015260208101905061067a565b60008484015250505050565b60006106ac8261065b565b6106b68185610666565b93506106c6818560208601610677565b6106cf8161040a565b840191505092915050565b6106e3816103ca565b82525050565b600060a0820190506106fe600083018861064c565b818103602083015261071081876106a1565b905061071f60408301866106da565b61072c60608301856106da565b818103608083015261073e81846106a1565b90509695505050505050565b600081905092915050565b60006107608261065b565b61076a818561074a565b935061077a818560208601610677565b80840191505092915050565b60006107928284610755565b915081905092915050565b7f4e487b7100000000000000000000000000000000000000000000000000000000600052602260045260246000fd5b600060028204905060018216806107e457607f821691505b6020821081036107f7576107f661079d565b5b50919050565b60008190508160005260206000209050919050565b60006020601f8301049050919050565b600082821b905092915050565b60006008830261085f7fffffffffffffffffffffffffffffffffffffffffffffffffffffffffffffffff82610822565b6108698683610822565b95508019841693508086168417925050509392505050565b6000819050919050565b60006108a66108a161089c846103ca565b610881565b6103ca565b9050919050565b6000819050919050565b6108c08361088b565b6108d46108cc826108ad565b84845461082f565b825550505050565b600090565b6108e96108dc565b6108f48184846108b7565b505050565b5b818110156109185761090d6000826108e1565b6001810190506108fa565b5050565b601f82111561095d5761092e816107fd565b61093784610812565b81016020851015610946578190505b61095a61095285610812565b8301826108f9565b50505b505050565b600082821c905092915050565b600061098060001984600802610962565b1980831691505092915050565b6000610999838361096f565b9150826002028217905092915050565b6109b28261065b565b67ffffffffffffffff8111156109cb576109ca61041b565b5b6109d582546107cc565b6109e082828561091c565b600060209050601f831160018114610a135760008415610a01578287015190505b610a0b858261098d565b865550610a73565b601f198416610a21866107fd565b60005b82811015610a4957848901518255600182019150602085019450602081019050610a24565b86831015610a665784890151610a62601f89168261096f565b8355505b6001600288020188555050505b50505050505056fea2646970667358221220d72ae12512fc72cd5fb96685873d51e3b3deaf5c73c3d03f82c23ce313133f3264736f6c63430008130033",
  "immutableReferences": {},
  "source": "// SPDX-License-Identifier: MIT\r\npragma solidity 0.8.19;\r\n\r\ncontract Authenticity{\r\n    event FileCertified(address author, string fileHash, uint timestamp, uint fileSize, string fileExtension);\r\n\r\n    struct FileCertificate{\r\n        address author;\r\n        string fileHash;\r\n        uint timestamp;\r\n        uint fileSize;\r\n        string fileExtension;\r\n    }\r\n\r\n    mapping(string =>FileCertificate) fileCertificatesMap;\r\n\r\n    function certifyFile(uint fileSize, string memory fileHash, string memory fileExtension) public payable{\r\n        FileCertificate memory newFileCertificate = FileCertificate(msg.sender, fileHash, block.timestamp, fileSize, fileExtension);\r\n        fileCertificatesMap[fileHash]= newFileCertificate;\r\n        emit FileCertified(msg.sender, fileHash, block.timestamp, fileSize, fileExtension);\r\n    }\r\n\r\n    function verifyFile(string memory fileHash) public view returns(address, string memory, uint, uint, string memory){\r\n        return (fileCertificatesMap[fileHash].author,\r\n        fileCertificatesMap[fileHash].fileHash,\r\n        fileCertificatesMap[fileHash].timestamp,\r\n        fileCertificatesMap[fileHash].fileSize,\r\n        fileCertificatesMap[fileHash].fileExtension\r\n        );\r\n    }\r\n}",
  "sourcePath": "C:\\Users\\Shashi\\blockchain\\sih\\contracts\\Authenticity.sol",
  "compiler": {
    "name": "solc",
    "version": "0.8.19+commit.7dd6d404.Emscripten.clang"
  },
  "schemaVersion": "3.4.15",
  "updatedAt": "2023-09-07T17:58:41.221Z",
  "devdoc": {
    "kind": "dev",
    "methods": {},
    "version": 1
  },
  "userdoc": {
    "kind": "user",
    "methods": {},
    "version": 1
  }
}